{
  "contractName": "AppleBanana",
  "abi": [
    {
      "inputs": [],
      "stateMutability": "nonpayable",
      "type": "constructor"
    },
    {
      "anonymous": false,
      "inputs": [
        {
          "indexed": true,
          "internalType": "address",
          "name": "owner",
          "type": "address"
        },
        {
          "indexed": true,
          "internalType": "address",
          "name": "approved",
          "type": "address"
        },
        {
          "indexed": true,
          "internalType": "uint256",
          "name": "tokenId",
          "type": "uint256"
        }
      ],
      "name": "Approval",
      "type": "event"
    },
    {
      "anonymous": false,
      "inputs": [
        {
          "indexed": true,
          "internalType": "address",
          "name": "owner",
          "type": "address"
        },
        {
          "indexed": true,
          "internalType": "address",
          "name": "operator",
          "type": "address"
        },
        {
          "indexed": false,
          "internalType": "bool",
          "name": "approved",
          "type": "bool"
        }
      ],
      "name": "ApprovalForAll",
      "type": "event"
    },
    {
      "anonymous": false,
      "inputs": [
        {
          "indexed": true,
          "internalType": "address",
          "name": "previousOwner",
          "type": "address"
        },
        {
          "indexed": true,
          "internalType": "address",
          "name": "newOwner",
          "type": "address"
        }
      ],
      "name": "OwnershipTransferred",
      "type": "event"
    },
    {
      "anonymous": false,
      "inputs": [
        {
          "indexed": true,
          "internalType": "address",
          "name": "from",
          "type": "address"
        },
        {
          "indexed": true,
          "internalType": "address",
          "name": "to",
          "type": "address"
        },
        {
          "indexed": true,
          "internalType": "uint256",
          "name": "tokenId",
          "type": "uint256"
        }
      ],
      "name": "Transfer",
      "type": "event"
    },
    {
      "inputs": [
        {
          "internalType": "address",
          "name": "to",
          "type": "address"
        },
        {
          "internalType": "uint256",
          "name": "tokenId",
          "type": "uint256"
        }
      ],
      "name": "approve",
      "outputs": [],
      "stateMutability": "nonpayable",
      "type": "function"
    },
    {
      "inputs": [
        {
          "internalType": "address",
          "name": "owner",
          "type": "address"
        }
      ],
      "name": "balanceOf",
      "outputs": [
        {
          "internalType": "uint256",
          "name": "",
          "type": "uint256"
        }
      ],
      "stateMutability": "view",
      "type": "function",
      "constant": true
    },
    {
      "inputs": [
        {
          "internalType": "uint256",
          "name": "tokenId",
          "type": "uint256"
        }
      ],
      "name": "getApproved",
      "outputs": [
        {
          "internalType": "address",
          "name": "",
          "type": "address"
        }
      ],
      "stateMutability": "view",
      "type": "function",
      "constant": true
    },
    {
      "inputs": [
        {
          "internalType": "address",
          "name": "owner",
          "type": "address"
        },
        {
          "internalType": "address",
          "name": "operator",
          "type": "address"
        }
      ],
      "name": "isApprovedForAll",
      "outputs": [
        {
          "internalType": "bool",
          "name": "",
          "type": "bool"
        }
      ],
      "stateMutability": "view",
      "type": "function",
      "constant": true
    },
    {
      "inputs": [],
      "name": "name",
      "outputs": [
        {
          "internalType": "string",
          "name": "",
          "type": "string"
        }
      ],
      "stateMutability": "view",
      "type": "function",
      "constant": true
    },
    {
      "inputs": [],
      "name": "owner",
      "outputs": [
        {
          "internalType": "address",
          "name": "",
          "type": "address"
        }
      ],
      "stateMutability": "view",
      "type": "function",
      "constant": true
    },
    {
      "inputs": [
        {
          "internalType": "uint256",
          "name": "tokenId",
          "type": "uint256"
        }
      ],
      "name": "ownerOf",
      "outputs": [
        {
          "internalType": "address",
          "name": "",
          "type": "address"
        }
      ],
      "stateMutability": "view",
      "type": "function",
      "constant": true
    },
    {
      "inputs": [],
      "name": "renounceOwnership",
      "outputs": [],
      "stateMutability": "nonpayable",
      "type": "function"
    },
    {
      "inputs": [
        {
          "internalType": "address",
          "name": "from",
          "type": "address"
        },
        {
          "internalType": "address",
          "name": "to",
          "type": "address"
        },
        {
          "internalType": "uint256",
          "name": "tokenId",
          "type": "uint256"
        }
      ],
      "name": "safeTransferFrom",
      "outputs": [],
      "stateMutability": "nonpayable",
      "type": "function"
    },
    {
      "inputs": [
        {
          "internalType": "address",
          "name": "from",
          "type": "address"
        },
        {
          "internalType": "address",
          "name": "to",
          "type": "address"
        },
        {
          "internalType": "uint256",
          "name": "tokenId",
          "type": "uint256"
        },
        {
          "internalType": "bytes",
          "name": "_data",
          "type": "bytes"
        }
      ],
      "name": "safeTransferFrom",
      "outputs": [],
      "stateMutability": "nonpayable",
      "type": "function"
    },
    {
      "inputs": [
        {
          "internalType": "address",
          "name": "operator",
          "type": "address"
        },
        {
          "internalType": "bool",
          "name": "approved",
          "type": "bool"
        }
      ],
      "name": "setApprovalForAll",
      "outputs": [],
      "stateMutability": "nonpayable",
      "type": "function"
    },
    {
      "inputs": [
        {
          "internalType": "bytes4",
          "name": "interfaceId",
          "type": "bytes4"
        }
      ],
      "name": "supportsInterface",
      "outputs": [
        {
          "internalType": "bool",
          "name": "",
          "type": "bool"
        }
      ],
      "stateMutability": "view",
      "type": "function",
      "constant": true
    },
    {
      "inputs": [],
      "name": "symbol",
      "outputs": [
        {
          "internalType": "string",
          "name": "",
          "type": "string"
        }
      ],
      "stateMutability": "view",
      "type": "function",
      "constant": true
    },
    {
      "inputs": [
        {
          "internalType": "uint256",
          "name": "tokenId",
          "type": "uint256"
        }
      ],
      "name": "tokenURI",
      "outputs": [
        {
          "internalType": "string",
          "name": "",
          "type": "string"
        }
      ],
      "stateMutability": "view",
      "type": "function",
      "constant": true
    },
    {
      "inputs": [
        {
          "internalType": "address",
          "name": "from",
          "type": "address"
        },
        {
          "internalType": "address",
          "name": "to",
          "type": "address"
        },
        {
          "internalType": "uint256",
          "name": "tokenId",
          "type": "uint256"
        }
      ],
      "name": "transferFrom",
      "outputs": [],
      "stateMutability": "nonpayable",
      "type": "function"
    },
    {
      "inputs": [
        {
          "internalType": "address",
          "name": "newOwner",
          "type": "address"
        }
      ],
      "name": "transferOwnership",
      "outputs": [],
      "stateMutability": "nonpayable",
      "type": "function"
    }
  ],
  "bytecode": "0x60806040523480156200001157600080fd5b506040518060400160405280600c81526020017f4170706c652042616e61636100000000000000000000000000000000000000008152506040518060400160405280600281526020017f4142000000000000000000000000000000000000000000000000000000000000815250816000908051906020019062000096929190620001a6565b508060019080519060200190620000af929190620001a6565b505050620000d2620000c6620000d860201b60201c565b620000e060201b60201c565b620002bb565b600033905090565b6000600660009054906101000a900473ffffffffffffffffffffffffffffffffffffffff16905081600660006101000a81548173ffffffffffffffffffffffffffffffffffffffff021916908373ffffffffffffffffffffffffffffffffffffffff1602179055508173ffffffffffffffffffffffffffffffffffffffff168173ffffffffffffffffffffffffffffffffffffffff167f8be0079c531659141344cd1fd0a4f28419497f9722a3daafe3b4186f6b6457e060405160405180910390a35050565b828054620001b49062000256565b90600052602060002090601f016020900481019282620001d8576000855562000224565b82601f10620001f357805160ff191683800117855562000224565b8280016001018555821562000224579182015b828111156200022357825182559160200191906001019062000206565b5b50905062000233919062000237565b5090565b5b808211156200025257600081600090555060010162000238565b5090565b600060028204905060018216806200026f57607f821691505b602082108114156200028657620002856200028c565b5b50919050565b7f4e487b7100000000000000000000000000000000000000000000000000000000600052602260045260246000fd5b6127af80620002cb6000396000f3fe608060405234801561001057600080fd5b50600436106101005760003560e01c8063715018a611610097578063b88d4fde11610066578063b88d4fde14610299578063c87b56dd146102b5578063e985e9c5146102e5578063f2fde38b1461031557610100565b8063715018a6146102375780638da5cb5b1461024157806395d89b411461025f578063a22cb4651461027d57610100565b806323b872dd116100d357806323b872dd1461019f57806342842e0e146101bb5780636352211e146101d757806370a082311461020757610100565b806301ffc9a71461010557806306fdde0314610135578063081812fc14610153578063095ea7b314610183575b600080fd5b61011f600480360381019061011a919061193c565b610331565b60405161012c9190611d08565b60405180910390f35b61013d610413565b60405161014a9190611d23565b60405180910390f35b61016d60048036038101906101689190611996565b6104a5565b60405161017a9190611ca1565b60405180910390f35b61019d600480360381019061019891906118fc565b61052a565b005b6101b960048036038101906101b491906117e6565b610642565b005b6101d560048036038101906101d091906117e6565b6106a2565b005b6101f160048036038101906101ec9190611996565b6106c2565b6040516101fe9190611ca1565b60405180910390f35b610221600480360381019061021c9190611779565b610774565b60405161022e9190611f05565b60405180910390f35b61023f61082c565b005b6102496108b4565b6040516102569190611ca1565b60405180910390f35b6102676108de565b6040516102749190611d23565b60405180910390f35b610297600480360381019061029291906118bc565b610970565b005b6102b360048036038101906102ae9190611839565b610af1565b005b6102cf60048036038101906102ca9190611996565b610b53565b6040516102dc9190611d23565b60405180910390f35b6102ff60048036038101906102fa91906117a6565b610bfa565b60405161030c9190611d08565b60405180910390f35b61032f600480360381019061032a9190611779565b610c8e565b005b60007f80ac58cd000000000000000000000000000000000000000000000000000000007bffffffffffffffffffffffffffffffffffffffffffffffffffffffff1916827bffffffffffffffffffffffffffffffffffffffffffffffffffffffff191614806103fc57507f5b5e139f000000000000000000000000000000000000000000000000000000007bffffffffffffffffffffffffffffffffffffffffffffffffffffffff1916827bffffffffffffffffffffffffffffffffffffffffffffffffffffffff1916145b8061040c575061040b82610d86565b5b9050919050565b6060600080546104229061212a565b80601f016020809104026020016040519081016040528092919081815260200182805461044e9061212a565b801561049b5780601f106104705761010080835404028352916020019161049b565b820191906000526020600020905b81548152906001019060200180831161047e57829003601f168201915b5050505050905090565b60006104b082610df0565b6104ef576040517f08c379a00000000000000000000000000000000000000000000000000000000081526004016104e690611e45565b60405180910390fd5b6004600083815260200190815260200160002060009054906101000a900473ffffffffffffffffffffffffffffffffffffffff169050919050565b6000610535826106c2565b90508073ffffffffffffffffffffffffffffffffffffffff168373ffffffffffffffffffffffffffffffffffffffff1614156105a6576040517f08c379a000000000000000000000000000000000000000000000000000000000815260040161059d90611ec5565b60405180910390fd5b8073ffffffffffffffffffffffffffffffffffffffff166105c5610e5c565b73ffffffffffffffffffffffffffffffffffffffff1614806105f457506105f3816105ee610e5c565b610bfa565b5b610633576040517f08c379a000000000000000000000000000000000000000000000000000000000815260040161062a90611de5565b60405180910390fd5b61063d8383610e64565b505050565b61065361064d610e5c565b82610f1d565b610692576040517f08c379a000000000000000000000000000000000000000000000000000000000815260040161068990611ee5565b60405180910390fd5b61069d838383610ffb565b505050565b6106bd83838360405180602001604052806000815250610af1565b505050565b6000806002600084815260200190815260200160002060009054906101000a900473ffffffffffffffffffffffffffffffffffffffff169050600073ffffffffffffffffffffffffffffffffffffffff168173ffffffffffffffffffffffffffffffffffffffff16141561076b576040517f08c379a000000000000000000000000000000000000000000000000000000000815260040161076290611e25565b60405180910390fd5b80915050919050565b60008073ffffffffffffffffffffffffffffffffffffffff168273ffffffffffffffffffffffffffffffffffffffff1614156107e5576040517f08c379a00000000000000000000000000000000000000000000000000000000081526004016107dc90611e05565b60405180910390fd5b600360008373ffffffffffffffffffffffffffffffffffffffff1673ffffffffffffffffffffffffffffffffffffffff168152602001908152602001600020549050919050565b610834610e5c565b73ffffffffffffffffffffffffffffffffffffffff166108526108b4565b73ffffffffffffffffffffffffffffffffffffffff16146108a8576040517f08c379a000000000000000000000000000000000000000000000000000000000815260040161089f90611e65565b60405180910390fd5b6108b26000611257565b565b6000600660009054906101000a900473ffffffffffffffffffffffffffffffffffffffff16905090565b6060600180546108ed9061212a565b80601f01602080910402602001604051908101604052809291908181526020018280546109199061212a565b80156109665780601f1061093b57610100808354040283529160200191610966565b820191906000526020600020905b81548152906001019060200180831161094957829003601f168201915b5050505050905090565b610978610e5c565b73ffffffffffffffffffffffffffffffffffffffff168273ffffffffffffffffffffffffffffffffffffffff1614156109e6576040517f08c379a00000000000000000000000000000000000000000000000000000000081526004016109dd90611da5565b60405180910390fd5b80600560006109f3610e5c565b73ffffffffffffffffffffffffffffffffffffffff1673ffffffffffffffffffffffffffffffffffffffff16815260200190815260200160002060008473ffffffffffffffffffffffffffffffffffffffff1673ffffffffffffffffffffffffffffffffffffffff16815260200190815260200160002060006101000a81548160ff0219169083151502179055508173ffffffffffffffffffffffffffffffffffffffff16610aa0610e5c565b73ffffffffffffffffffffffffffffffffffffffff167f17307eab39ab6107e8899845ad3d59bd9653f200f220920489ca2b5937696c3183604051610ae59190611d08565b60405180910390a35050565b610b02610afc610e5c565b83610f1d565b610b41576040517f08c379a0000000000000000000000000000000000000000000000000000000008152600401610b3890611ee5565b60405180910390fd5b610b4d8484848461131d565b50505050565b6060610b5e82610df0565b610b9d576040517f08c379a0000000000000000000000000000000000000000000000000000000008152600401610b9490611ea5565b60405180910390fd5b6000610ba7611379565b90506000815111610bc75760405180602001604052806000815250610bf2565b80610bd184611390565b604051602001610be2929190611c7d565b6040516020818303038152906040525b915050919050565b6000600560008473ffffffffffffffffffffffffffffffffffffffff1673ffffffffffffffffffffffffffffffffffffffff16815260200190815260200160002060008373ffffffffffffffffffffffffffffffffffffffff1673ffffffffffffffffffffffffffffffffffffffff16815260200190815260200160002060009054906101000a900460ff16905092915050565b610c96610e5c565b73ffffffffffffffffffffffffffffffffffffffff16610cb46108b4565b73ffffffffffffffffffffffffffffffffffffffff1614610d0a576040517f08c379a0000000000000000000000000000000000000000000000000000000008152600401610d0190611e65565b60405180910390fd5b600073ffffffffffffffffffffffffffffffffffffffff168173ffffffffffffffffffffffffffffffffffffffff161415610d7a576040517f08c379a0000000000000000000000000000000000000000000000000000000008152600401610d7190611d65565b60405180910390fd5b610d8381611257565b50565b60007f01ffc9a7000000000000000000000000000000000000000000000000000000007bffffffffffffffffffffffffffffffffffffffffffffffffffffffff1916827bffffffffffffffffffffffffffffffffffffffffffffffffffffffff1916149050919050565b60008073ffffffffffffffffffffffffffffffffffffffff166002600084815260200190815260200160002060009054906101000a900473ffffffffffffffffffffffffffffffffffffffff1673ffffffffffffffffffffffffffffffffffffffff1614159050919050565b600033905090565b816004600083815260200190815260200160002060006101000a81548173ffffffffffffffffffffffffffffffffffffffff021916908373ffffffffffffffffffffffffffffffffffffffff160217905550808273ffffffffffffffffffffffffffffffffffffffff16610ed7836106c2565b73ffffffffffffffffffffffffffffffffffffffff167f8c5be1e5ebec7d5bd14f71427d1e84f3dd0314c0f7b2291e5b200ac8c7c3b92560405160405180910390a45050565b6000610f2882610df0565b610f67576040517f08c379a0000000000000000000000000000000000000000000000000000000008152600401610f5e90611dc5565b60405180910390fd5b6000610f72836106c2565b90508073ffffffffffffffffffffffffffffffffffffffff168473ffffffffffffffffffffffffffffffffffffffff161480610fe157508373ffffffffffffffffffffffffffffffffffffffff16610fc9846104a5565b73ffffffffffffffffffffffffffffffffffffffff16145b80610ff25750610ff18185610bfa565b5b91505092915050565b8273ffffffffffffffffffffffffffffffffffffffff1661101b826106c2565b73ffffffffffffffffffffffffffffffffffffffff1614611071576040517f08c379a000000000000000000000000000000000000000000000000000000000815260040161106890611e85565b60405180910390fd5b600073ffffffffffffffffffffffffffffffffffffffff168273ffffffffffffffffffffffffffffffffffffffff1614156110e1576040517f08c379a00000000000000000000000000000000000000000000000000000000081526004016110d890611d85565b60405180910390fd5b6110ec8383836114f1565b6110f7600082610e64565b6001600360008573ffffffffffffffffffffffffffffffffffffffff1673ffffffffffffffffffffffffffffffffffffffff16815260200190815260200160002060008282546111479190612040565b925050819055506001600360008473ffffffffffffffffffffffffffffffffffffffff1673ffffffffffffffffffffffffffffffffffffffff168152602001908152602001600020600082825461119e9190611fb9565b92505081905550816002600083815260200190815260200160002060006101000a81548173ffffffffffffffffffffffffffffffffffffffff021916908373ffffffffffffffffffffffffffffffffffffffff160217905550808273ffffffffffffffffffffffffffffffffffffffff168473ffffffffffffffffffffffffffffffffffffffff167fddf252ad1be2c89b69c2b068fc378daa952ba7f163c4a11628f55a4df523b3ef60405160405180910390a4505050565b6000600660009054906101000a900473ffffffffffffffffffffffffffffffffffffffff16905081600660006101000a81548173ffffffffffffffffffffffffffffffffffffffff021916908373ffffffffffffffffffffffffffffffffffffffff1602179055508173ffffffffffffffffffffffffffffffffffffffff168173ffffffffffffffffffffffffffffffffffffffff167f8be0079c531659141344cd1fd0a4f28419497f9722a3daafe3b4186f6b6457e060405160405180910390a35050565b611328848484610ffb565b611334848484846114f6565b611373576040517f08c379a000000000000000000000000000000000000000000000000000000000815260040161136a90611d45565b60405180910390fd5b50505050565b606060405180602001604052806000815250905090565b606060008214156113d8576040518060400160405280600181526020017f300000000000000000000000000000000000000000000000000000000000000081525090506114ec565b600082905060005b6000821461140a5780806113f39061218d565b915050600a82611403919061200f565b91506113e0565b60008167ffffffffffffffff811115611426576114256122c3565b5b6040519080825280601f01601f1916602001820160405280156114585781602001600182028036833780820191505090505b5090505b600085146114e5576001826114719190612040565b9150600a8561148091906121d6565b603061148c9190611fb9565b60f81b8183815181106114a2576114a1612294565b5b60200101907effffffffffffffffffffffffffffffffffffffffffffffffffffffffffffff1916908160001a905350600a856114de919061200f565b945061145c565b8093505050505b919050565b505050565b60006115178473ffffffffffffffffffffffffffffffffffffffff1661168d565b15611680578373ffffffffffffffffffffffffffffffffffffffff1663150b7a02611540610e5c565b8786866040518563ffffffff1660e01b81526004016115629493929190611cbc565b602060405180830381600087803b15801561157c57600080fd5b505af19250505080156115ad57506040513d601f19601f820116820180604052508101906115aa9190611969565b60015b611630573d80600081146115dd576040519150601f19603f3d011682016040523d82523d6000602084013e6115e2565b606091505b50600081511415611628576040517f08c379a000000000000000000000000000000000000000000000000000000000815260040161161f90611d45565b60405180910390fd5b805181602001fd5b63150b7a0260e01b7bffffffffffffffffffffffffffffffffffffffffffffffffffffffff1916817bffffffffffffffffffffffffffffffffffffffffffffffffffffffff191614915050611685565b600190505b949350505050565b600080823b905060008111915050919050565b60006116b36116ae84611f45565b611f20565b9050828152602081018484840111156116cf576116ce6122f7565b5b6116da8482856120e8565b509392505050565b6000813590506116f18161271d565b92915050565b60008135905061170681612734565b92915050565b60008135905061171b8161274b565b92915050565b6000815190506117308161274b565b92915050565b600082601f83011261174b5761174a6122f2565b5b813561175b8482602086016116a0565b91505092915050565b60008135905061177381612762565b92915050565b60006020828403121561178f5761178e612301565b5b600061179d848285016116e2565b91505092915050565b600080604083850312156117bd576117bc612301565b5b60006117cb858286016116e2565b92505060206117dc858286016116e2565b9150509250929050565b6000806000606084860312156117ff576117fe612301565b5b600061180d868287016116e2565b935050602061181e868287016116e2565b925050604061182f86828701611764565b9150509250925092565b6000806000806080858703121561185357611852612301565b5b6000611861878288016116e2565b9450506020611872878288016116e2565b935050604061188387828801611764565b925050606085013567ffffffffffffffff8111156118a4576118a36122fc565b5b6118b087828801611736565b91505092959194509250565b600080604083850312156118d3576118d2612301565b5b60006118e1858286016116e2565b92505060206118f2858286016116f7565b9150509250929050565b6000806040838503121561191357611912612301565b5b6000611921858286016116e2565b925050602061193285828601611764565b9150509250929050565b60006020828403121561195257611951612301565b5b60006119608482850161170c565b91505092915050565b60006020828403121561197f5761197e612301565b5b600061198d84828501611721565b91505092915050565b6000602082840312156119ac576119ab612301565b5b60006119ba84828501611764565b91505092915050565b6119cc81612074565b82525050565b6119db81612086565b82525050565b60006119ec82611f76565b6119f68185611f8c565b9350611a068185602086016120f7565b611a0f81612306565b840191505092915050565b6000611a2582611f81565b611a2f8185611f9d565b9350611a3f8185602086016120f7565b611a4881612306565b840191505092915050565b6000611a5e82611f81565b611a688185611fae565b9350611a788185602086016120f7565b80840191505092915050565b6000611a91603283611f9d565b9150611a9c82612317565b604082019050919050565b6000611ab4602683611f9d565b9150611abf82612366565b604082019050919050565b6000611ad7602483611f9d565b9150611ae2826123b5565b604082019050919050565b6000611afa601983611f9d565b9150611b0582612404565b602082019050919050565b6000611b1d602c83611f9d565b9150611b288261242d565b604082019050919050565b6000611b40603883611f9d565b9150611b4b8261247c565b604082019050919050565b6000611b63602a83611f9d565b9150611b6e826124cb565b604082019050919050565b6000611b86602983611f9d565b9150611b918261251a565b604082019050919050565b6000611ba9602c83611f9d565b9150611bb482612569565b604082019050919050565b6000611bcc602083611f9d565b9150611bd7826125b8565b602082019050919050565b6000611bef602983611f9d565b9150611bfa826125e1565b604082019050919050565b6000611c12602f83611f9d565b9150611c1d82612630565b604082019050919050565b6000611c35602183611f9d565b9150611c408261267f565b604082019050919050565b6000611c58603183611f9d565b9150611c63826126ce565b604082019050919050565b611c77816120de565b82525050565b6000611c898285611a53565b9150611c958284611a53565b91508190509392505050565b6000602082019050611cb660008301846119c3565b92915050565b6000608082019050611cd160008301876119c3565b611cde60208301866119c3565b611ceb6040830185611c6e565b8181036060830152611cfd81846119e1565b905095945050505050565b6000602082019050611d1d60008301846119d2565b92915050565b60006020820190508181036000830152611d3d8184611a1a565b905092915050565b60006020820190508181036000830152611d5e81611a84565b9050919050565b60006020820190508181036000830152611d7e81611aa7565b9050919050565b60006020820190508181036000830152611d9e81611aca565b9050919050565b60006020820190508181036000830152611dbe81611aed565b9050919050565b60006020820190508181036000830152611dde81611b10565b9050919050565b60006020820190508181036000830152611dfe81611b33565b9050919050565b60006020820190508181036000830152611e1e81611b56565b9050919050565b60006020820190508181036000830152611e3e81611b79565b9050919050565b60006020820190508181036000830152611e5e81611b9c565b9050919050565b60006020820190508181036000830152611e7e81611bbf565b9050919050565b60006020820190508181036000830152611e9e81611be2565b9050919050565b60006020820190508181036000830152611ebe81611c05565b9050919050565b60006020820190508181036000830152611ede81611c28565b9050919050565b60006020820190508181036000830152611efe81611c4b565b9050919050565b6000602082019050611f1a6000830184611c6e565b92915050565b6000611f2a611f3b565b9050611f36828261215c565b919050565b6000604051905090565b600067ffffffffffffffff821115611f6057611f5f6122c3565b5b611f6982612306565b9050602081019050919050565b600081519050919050565b600081519050919050565b600082825260208201905092915050565b600082825260208201905092915050565b600081905092915050565b6000611fc4826120de565b9150611fcf836120de565b9250827fffffffffffffffffffffffffffffffffffffffffffffffffffffffffffffffff0382111561200457612003612207565b5b828201905092915050565b600061201a826120de565b9150612025836120de565b92508261203557612034612236565b5b828204905092915050565b600061204b826120de565b9150612056836120de565b92508282101561206957612068612207565b5b828203905092915050565b600061207f826120be565b9050919050565b60008115159050919050565b60007fffffffff0000000000000000000000000000000000000000000000000000000082169050919050565b600073ffffffffffffffffffffffffffffffffffffffff82169050919050565b6000819050919050565b82818337600083830152505050565b60005b838110156121155780820151818401526020810190506120fa565b83811115612124576000848401525b50505050565b6000600282049050600182168061214257607f821691505b6020821081141561215657612155612265565b5b50919050565b61216582612306565b810181811067ffffffffffffffff82111715612184576121836122c3565b5b80604052505050565b6000612198826120de565b91507fffffffffffffffffffffffffffffffffffffffffffffffffffffffffffffffff8214156121cb576121ca612207565b5b600182019050919050565b60006121e1826120de565b91506121ec836120de565b9250826121fc576121fb612236565b5b828206905092915050565b7f4e487b7100000000000000000000000000000000000000000000000000000000600052601160045260246000fd5b7f4e487b7100000000000000000000000000000000000000000000000000000000600052601260045260246000fd5b7f4e487b7100000000000000000000000000000000000000000000000000000000600052602260045260246000fd5b7f4e487b7100000000000000000000000000000000000000000000000000000000600052603260045260246000fd5b7f4e487b7100000000000000000000000000000000000000000000000000000000600052604160045260246000fd5b600080fd5b600080fd5b600080fd5b600080fd5b6000601f19601f8301169050919050565b7f4552433732313a207472616e7366657220746f206e6f6e20455243373231526560008201527f63656976657220696d706c656d656e7465720000000000000000000000000000602082015250565b7f4f776e61626c653a206e6577206f776e657220697320746865207a65726f206160008201527f6464726573730000000000000000000000000000000000000000000000000000602082015250565b7f4552433732313a207472616e7366657220746f20746865207a65726f2061646460008201527f7265737300000000000000000000000000000000000000000000000000000000602082015250565b7f4552433732313a20617070726f766520746f2063616c6c657200000000000000600082015250565b7f4552433732313a206f70657261746f7220717565727920666f72206e6f6e657860008201527f697374656e7420746f6b656e0000000000000000000000000000000000000000602082015250565b7f4552433732313a20617070726f76652063616c6c6572206973206e6f74206f7760008201527f6e6572206e6f7220617070726f76656420666f7220616c6c0000000000000000602082015250565b7f4552433732313a2062616c616e636520717565727920666f7220746865207a6560008201527f726f206164647265737300000000000000000000000000000000000000000000602082015250565b7f4552433732313a206f776e657220717565727920666f72206e6f6e657869737460008201527f656e7420746f6b656e0000000000000000000000000000000000000000000000602082015250565b7f4552433732313a20617070726f76656420717565727920666f72206e6f6e657860008201527f697374656e7420746f6b656e0000000000000000000000000000000000000000602082015250565b7f4f776e61626c653a2063616c6c6572206973206e6f7420746865206f776e6572600082015250565b7f4552433732313a207472616e73666572206f6620746f6b656e2074686174206960008201527f73206e6f74206f776e0000000000000000000000000000000000000000000000602082015250565b7f4552433732314d657461646174613a2055524920717565727920666f72206e6f60008201527f6e6578697374656e7420746f6b656e0000000000000000000000000000000000602082015250565b7f4552433732313a20617070726f76616c20746f2063757272656e74206f776e6560008201527f7200000000000000000000000000000000000000000000000000000000000000602082015250565b7f4552433732313a207472616e736665722063616c6c6572206973206e6f74206f60008201527f776e6572206e6f7220617070726f766564000000000000000000000000000000602082015250565b61272681612074565b811461273157600080fd5b50565b61273d81612086565b811461274857600080fd5b50565b61275481612092565b811461275f57600080fd5b50565b61276b816120de565b811461277657600080fd5b5056fea26469706673582212201e47c67147f27c2039a5d7cf529f37ce866d13e49af5628af5aac422a1da2f9e64736f6c63430008070033",
  "immutableReferences": {},
  "source": "pragma solidity >=0.4.22 <0.9.0;\r\n\r\nimport \"@openzeppelin/contracts/token/ERC721/ERC721.sol\";\r\nimport \"@openzeppelin/contracts/access/Ownable.sol\";\r\n\r\ncontract AppleBanana is ERC721, Ownable {\r\n    constructor() ERC721(\"Apple Banaca\", \"AB\") public {\r\n\r\n    }\r\n}",
  "sourcePath": "C:\\Users\\ngoda\\Desktop\\NFTproject\\contracts\\AppleBanana.sol",
  "compiler": {
    "name": "solc",
    "version": "0.8.7+commit.e28d00a7.Emscripten.clang"
  },
  "schemaVersion": "3.4.2",
  "updatedAt": "2021-08-12T13:31:53.548Z",
  "networkType": "ethereum",
  "devdoc": {
    "kind": "dev",
    "methods": {
      "approve(address,uint256)": {
        "details": "See {IERC721-approve}."
      },
      "balanceOf(address)": {
        "details": "See {IERC721-balanceOf}."
      },
      "getApproved(uint256)": {
        "details": "See {IERC721-getApproved}."
      },
      "isApprovedForAll(address,address)": {
        "details": "See {IERC721-isApprovedForAll}."
      },
      "name()": {
        "details": "See {IERC721Metadata-name}."
      },
      "owner()": {
        "details": "Returns the address of the current owner."
      },
      "ownerOf(uint256)": {
        "details": "See {IERC721-ownerOf}."
      },
      "renounceOwnership()": {
        "details": "Leaves the contract without owner. It will not be possible to call `onlyOwner` functions anymore. Can only be called by the current owner. NOTE: Renouncing ownership will leave the contract without an owner, thereby removing any functionality that is only available to the owner."
      },
      "safeTransferFrom(address,address,uint256)": {
        "details": "See {IERC721-safeTransferFrom}."
      },
      "safeTransferFrom(address,address,uint256,bytes)": {
        "details": "See {IERC721-safeTransferFrom}."
      },
      "setApprovalForAll(address,bool)": {
        "details": "See {IERC721-setApprovalForAll}."
      },
      "supportsInterface(bytes4)": {
        "details": "See {IERC165-supportsInterface}."
      },
      "symbol()": {
        "details": "See {IERC721Metadata-symbol}."
      },
      "tokenURI(uint256)": {
        "details": "See {IERC721Metadata-tokenURI}."
      },
      "transferFrom(address,address,uint256)": {
        "details": "See {IERC721-transferFrom}."
      },
      "transferOwnership(address)": {
        "details": "Transfers ownership of the contract to a new account (`newOwner`). Can only be called by the current owner."
      }
    },
    "version": 1
  },
  "userdoc": {
    "kind": "user",
    "methods": {},
    "version": 1
  }
}